{
  "contractName": "KuwaFaucet",
  "abi": [
    {
      "constant": true,
      "inputs": [],
      "name": "key3",
      "outputs": [
        {
          "name": "",
          "type": "string"
        }
      ],
      "payable": false,
      "stateMutability": "view",
      "type": "function"
    },
    {
      "constant": true,
      "inputs": [],
      "name": "key2",
      "outputs": [
        {
          "name": "",
          "type": "string"
        }
      ],
      "payable": false,
      "stateMutability": "view",
      "type": "function"
    },
    {
      "constant": true,
      "inputs": [],
      "name": "key1",
      "outputs": [
        {
          "name": "",
          "type": "string"
        }
      ],
      "payable": false,
      "stateMutability": "view",
      "type": "function"
    },
    {
      "constant": true,
      "inputs": [],
      "name": "getValidKuwaID",
      "outputs": [
        {
          "name": "",
          "type": "string"
        },
        {
          "name": "",
          "type": "string"
        },
        {
          "name": "",
          "type": "string"
        }
      ],
      "payable": false,
      "stateMutability": "view",
      "type": "function"
    }
  ],
  "bytecode": "0x608060405260a060405190810160405280606f81526020017f7870756236436731376765704c6b587538754d31513859355a52436732794e6381526020017f62444863487242463935354c47744c37546739636563397870437a4d7a45567381526020017f397552535576774373686f70706d3468345a6536375943396e564b7a7570657981526020017f653571624a75725871324a457932780000000000000000000000000000000000815250600090805190602001906100c2929190610253565b5060a060405190810160405280606f81526020017f78707562364269577543614651456b6648576e6948353338356233466663376181526020017f734c36517a57464635476d62545a4d4e4852423653744b36393951627447566381526020017f41667455426b64774b3446776f376251683177587952376f4268436652394e4e81526020017f546835456152584c62514547376e51000000000000000000000000000000000081525060019080519060200190610181929190610253565b5060a060405190810160405280606f81526020017f7870756236437338437a6d5648785743785164475a59355646436a6e7035665a81526020017f4e6634544c45726d6170724a647073387933776550755637734e6e507137505581526020017f6a3876775861656455625044634d6470676a7436446f694c6f7056765541686181526020017f634e4175366b4872765571594e6b48000000000000000000000000000000000081525060029080519060200190610240929190610253565b5034801561024d57600080fd5b506102f8565b828054600181600116156101000203166002900490600052602060002090601f016020900481019282601f1061029457805160ff19168380011785556102c2565b828001600101855582156102c2579182015b828111156102c15782518255916020019190600101906102a6565b5b5090506102cf91906102d3565b5090565b6102f591905b808211156102f15760008160009055506001016102d9565b5090565b90565b61076f806103076000396000f300608060405260043610610062576000357c0100000000000000000000000000000000000000000000000000000000900463ffffffff168063513ddfc0146100675780636199e3c2146100f757806365bb48ab14610187578063ef0f119f14610217575b600080fd5b34801561007357600080fd5b5061007c61037f565b6040518080602001828103825283818151815260200191508051906020019080838360005b838110156100bc5780820151818401526020810190506100a1565b50505050905090810190601f1680156100e95780820380516001836020036101000a031916815260200191505b509250505060405180910390f35b34801561010357600080fd5b5061010c61041d565b6040518080602001828103825283818151815260200191508051906020019080838360005b8381101561014c578082015181840152602081019050610131565b50505050905090810190601f1680156101795780820380516001836020036101000a031916815260200191505b509250505060405180910390f35b34801561019357600080fd5b5061019c6104bb565b6040518080602001828103825283818151815260200191508051906020019080838360005b838110156101dc5780820151818401526020810190506101c1565b50505050905090810190601f1680156102095780820380516001836020036101000a031916815260200191505b509250505060405180910390f35b34801561022357600080fd5b5061022c610559565b60405180806020018060200180602001848103845287818151815260200191508051906020019080838360005b83811015610274578082015181840152602081019050610259565b50505050905090810190601f1680156102a15780820380516001836020036101000a031916815260200191505b50848103835286818151815260200191508051906020019080838360005b838110156102da5780820151818401526020810190506102bf565b50505050905090810190601f1680156103075780820380516001836020036101000a031916815260200191505b50848103825285818151815260200191508051906020019080838360005b83811015610340578082015181840152602081019050610325565b50505050905090810190601f16801561036d5780820380516001836020036101000a031916815260200191505b50965050505050505060405180910390f35b60028054600181600116156101000203166002900480601f0160208091040260200160405190810160405280929190818152602001828054600181600116156101000203166002900480156104155780601f106103ea57610100808354040283529160200191610415565b820191906000526020600020905b8154815290600101906020018083116103f857829003601f168201915b505050505081565b60018054600181600116156101000203166002900480601f0160208091040260200160405190810160405280929190818152602001828054600181600116156101000203166002900480156104b35780601f10610488576101008083540402835291602001916104b3565b820191906000526020600020905b81548152906001019060200180831161049657829003601f168201915b505050505081565b60008054600181600116156101000203166002900480601f0160208091040260200160405190810160405280929190818152602001828054600181600116156101000203166002900480156105515780601f1061052657610100808354040283529160200191610551565b820191906000526020600020905b81548152906001019060200180831161053457829003601f168201915b505050505081565b6060806060600060016002828054600181600116156101000203166002900480601f0160208091040260200160405190810160405280929190818152602001828054600181600116156101000203166002900480156105f95780601f106105ce576101008083540402835291602001916105f9565b820191906000526020600020905b8154815290600101906020018083116105dc57829003601f168201915b50505050509250818054600181600116156101000203166002900480601f0160208091040260200160405190810160405280929190818152602001828054600181600116156101000203166002900480156106955780601f1061066a57610100808354040283529160200191610695565b820191906000526020600020905b81548152906001019060200180831161067857829003601f168201915b50505050509150808054600181600116156101000203166002900480601f0160208091040260200160405190810160405280929190818152602001828054600181600116156101000203166002900480156107315780601f1061070657610100808354040283529160200191610731565b820191906000526020600020905b81548152906001019060200180831161071457829003601f168201915b505050505090509250925092509091925600a165627a7a72305820d42876c5e53e90f56b4b8030601a1787c18270065a4876a5511f378c531276740029",
  "source": "// contracts/HelloWorld.sol\n\npragma solidity ^0.4.0;\n\ncontract KuwaFaucet {\n  string public key1 = 'xpub6Cg17gepLkXu8uM1Q8Y5ZRCg2yNcbDHcHrBF955LGtL7Tg9cec9xpCzMzEVs9uRSUvwCshoppm4h4Ze67YC9nVKzupeye5qbJurXq2JEy2x';\n  string public key2 = 'xpub6BiWuCaFQEkfHWniH5385b3Ffc7asL6QzWFF5GmbTZMNHRB6StK699QbtGVcAftUBkdwK4Fwo7bQh1wXyR7oBhCfR9NNTh5EaRXLbQEG7nQ';\n  string public key3 = 'xpub6Cs8CzmVHxWCxQdGZY5VFCjnp5fZNf4TLErmaprJdps8y3wePuV7sNnPq7PUj8vwXaedUbPDcMdpgjt6DoiLopVvUAhacNAu6kHrvUqYNkH';\n\n  function getValidKuwaID() public view returns(string,string,string) {\n    return (key1,key2,key3);\n  }\n  \n  \n}",
  "sourcePath": "/Users/hrishikeshkashyap/Documents/tcup/Faucet/contracts/KuwaFaucet.sol",
  "compiler": {
    "name": "solc",
    "version": "0.4.24+commit.e67f0147.Emscripten.clang"
  },
  "schemaVersion": "2.0.0",
  "updatedAt": "2018-07-10T15:20:57.989Z"
}