{
  "contractName": "KuwaToken",
  "abi": [
    {
      "constant": true,
      "inputs": [],
      "name": "name",
      "outputs": [
        {
          "name": "",
          "type": "string"
        }
      ],
      "payable": false,
      "stateMutability": "view",
      "type": "function"
    },
    {
      "constant": true,
      "inputs": [],
      "name": "totalSupply",
      "outputs": [
        {
          "name": "",
          "type": "uint256"
        }
      ],
      "payable": false,
      "stateMutability": "view",
      "type": "function"
    },
    {
      "constant": true,
      "inputs": [],
      "name": "standard",
      "outputs": [
        {
          "name": "",
          "type": "string"
        }
      ],
      "payable": false,
      "stateMutability": "view",
      "type": "function"
    },
    {
      "constant": true,
      "inputs": [
        {
          "name": "",
          "type": "address"
        }
      ],
      "name": "balanceOf",
      "outputs": [
        {
          "name": "",
          "type": "uint256"
        }
      ],
      "payable": false,
      "stateMutability": "view",
      "type": "function"
    },
    {
      "constant": true,
      "inputs": [
        {
          "name": "",
          "type": "address"
        }
      ],
      "name": "withdrawals",
      "outputs": [
        {
          "name": "",
          "type": "uint256"
        }
      ],
      "payable": false,
      "stateMutability": "view",
      "type": "function"
    },
    {
      "constant": true,
      "inputs": [],
      "name": "symbol",
      "outputs": [
        {
          "name": "",
          "type": "string"
        }
      ],
      "payable": false,
      "stateMutability": "view",
      "type": "function"
    },
    {
      "constant": true,
      "inputs": [
        {
          "name": "",
          "type": "address"
        },
        {
          "name": "",
          "type": "address"
        }
      ],
      "name": "allowance",
      "outputs": [
        {
          "name": "",
          "type": "uint256"
        }
      ],
      "payable": false,
      "stateMutability": "view",
      "type": "function"
    },
    {
      "inputs": [
        {
          "name": "_initialSupply",
          "type": "uint256"
        }
      ],
      "payable": false,
      "stateMutability": "nonpayable",
      "type": "constructor"
    },
    {
      "payable": true,
      "stateMutability": "payable",
      "type": "fallback"
    },
    {
      "anonymous": false,
      "inputs": [
        {
          "indexed": true,
          "name": "_from",
          "type": "address"
        },
        {
          "indexed": true,
          "name": "_to",
          "type": "address"
        },
        {
          "indexed": false,
          "name": "_value",
          "type": "uint256"
        }
      ],
      "name": "Transfer",
      "type": "event"
    },
    {
      "anonymous": false,
      "inputs": [
        {
          "indexed": true,
          "name": "_owner",
          "type": "address"
        },
        {
          "indexed": true,
          "name": "_spender",
          "type": "address"
        },
        {
          "indexed": false,
          "name": "_value",
          "type": "uint256"
        }
      ],
      "name": "Approval",
      "type": "event"
    },
    {
      "constant": false,
      "inputs": [
        {
          "name": "_to",
          "type": "address"
        },
        {
          "name": "_value",
          "type": "uint256"
        }
      ],
      "name": "transfer",
      "outputs": [
        {
          "name": "success",
          "type": "bool"
        }
      ],
      "payable": false,
      "stateMutability": "nonpayable",
      "type": "function"
    },
    {
      "constant": false,
      "inputs": [
        {
          "name": "_spender",
          "type": "address"
        },
        {
          "name": "_value",
          "type": "uint256"
        }
      ],
      "name": "approve",
      "outputs": [
        {
          "name": "success",
          "type": "bool"
        }
      ],
      "payable": false,
      "stateMutability": "nonpayable",
      "type": "function"
    },
    {
      "constant": false,
      "inputs": [
        {
          "name": "_from",
          "type": "address"
        },
        {
          "name": "_to",
          "type": "address"
        },
        {
          "name": "_value",
          "type": "uint256"
        }
      ],
      "name": "transferFrom",
      "outputs": [
        {
          "name": "success",
          "type": "bool"
        }
      ],
      "payable": false,
      "stateMutability": "nonpayable",
      "type": "function"
    },
    {
      "constant": false,
      "inputs": [
        {
          "name": "_amount",
          "type": "uint256"
        }
      ],
      "name": "withdraw",
      "outputs": [],
      "payable": false,
      "stateMutability": "nonpayable",
      "type": "function"
    },
    {
      "constant": false,
      "inputs": [
        {
          "name": "_publicKey",
          "type": "string"
        }
      ],
      "name": "generateChallenge",
      "outputs": [],
      "payable": false,
      "stateMutability": "nonpayable",
      "type": "function"
    },
    {
      "constant": true,
      "inputs": [
        {
          "name": "_publicKey",
          "type": "string"
        }
      ],
      "name": "getChallenge",
      "outputs": [
        {
          "name": "",
          "type": "uint256"
        }
      ],
      "payable": false,
      "stateMutability": "view",
      "type": "function"
    },
    {
      "constant": true,
      "inputs": [
        {
          "name": "_publicKey",
          "type": "string"
        }
      ],
      "name": "getRegistrationStatus",
      "outputs": [
        {
          "name": "",
          "type": "uint8"
        }
      ],
      "payable": false,
      "stateMutability": "view",
      "type": "function"
    },
    {
      "constant": false,
      "inputs": [
        {
          "name": "_publicKey",
          "type": "string"
        }
      ],
      "name": "markAsValid",
      "outputs": [
        {
          "name": "",
          "type": "bool"
        }
      ],
      "payable": false,
      "stateMutability": "nonpayable",
      "type": "function"
    },
    {
      "constant": false,
      "inputs": [
        {
          "name": "_publicKey",
          "type": "string"
        }
      ],
      "name": "markAsInvalid",
      "outputs": [
        {
          "name": "",
          "type": "bool"
        }
      ],
      "payable": false,
      "stateMutability": "nonpayable",
      "type": "function"
    }
  ],
  "bytecode": "0x60806040526040805190810160405280600981526020017f4b757761546f6b656e0000000000000000000000000000000000000000000000815250600090805190602001906200005192919062000171565b506040805190810160405280600481526020017f4b75776100000000000000000000000000000000000000000000000000000000815250600190805190602001906200009f92919062000171565b506040805190810160405280600e81526020017f4b757761546f6b656e2076312e3000000000000000000000000000000000000081525060029080519060200190620000ed92919062000171565b50348015620000fb57600080fd5b506040516020806200192e8339810180604052810190808051906020019092919050505080600760003373ffffffffffffffffffffffffffffffffffffffff1673ffffffffffffffffffffffffffffffffffffffff16815260200190815260200160002081905550806003819055505062000220565b828054600181600116156101000203166002900490600052602060002090601f016020900481019282601f10620001b457805160ff1916838001178555620001e5565b82800160010185558215620001e5579182015b82811115620001e4578251825591602001919060010190620001c7565b5b509050620001f49190620001f8565b5090565b6200021d91905b8082111562000219576000816000905550600101620001ff565b5090565b90565b6116fe80620002306000396000f3006080604052600436106100e6576000357c0100000000000000000000000000000000000000000000000000000000900463ffffffff16806306fdde0314610179578063095ea7b31461020957806318160ddd1461026e57806323b872dd146102995780632e1a7d4d1461031e5780633f4baa1e1461034b5780635a3b7e42146103cc57806370a082311461045c57806375c45d3f146104b35780637a9262a2146105345780638bbfc99e1461058b57806395d89b4114610608578063a9059cbb14610698578063ab098945146106fd578063dd62ed3e14610766578063f06df9f5146107dd575b34600560003373ffffffffffffffffffffffffffffffffffffffff1673ffffffffffffffffffffffffffffffffffffffff1681526020019081526020016000208190555034600560003373ffffffffffffffffffffffffffffffffffffffff1673ffffffffffffffffffffffffffffffffffffffff1681526020019081526020016000205414151561017757600080fd5b005b34801561018557600080fd5b5061018e610868565b6040518080602001828103825283818151815260200191508051906020019080838360005b838110156101ce5780820151818401526020810190506101b3565b50505050905090810190601f1680156101fb5780820380516001836020036101000a031916815260200191505b509250505060405180910390f35b34801561021557600080fd5b50610254600480360381019080803573ffffffffffffffffffffffffffffffffffffffff16906020019092919080359060200190929190505050610906565b604051808215151515815260200191505060405180910390f35b34801561027a57600080fd5b506102836109f8565b6040518082815260200191505060405180910390f35b3480156102a557600080fd5b50610304600480360381019080803573ffffffffffffffffffffffffffffffffffffffff169060200190929190803573ffffffffffffffffffffffffffffffffffffffff169060200190929190803590602001909291905050506109fe565b604051808215151515815260200191505060405180910390f35b34801561032a57600080fd5b5061034960048036038101908080359060200190929190505050610d65565b005b34801561035757600080fd5b506103b2600480360381019080803590602001908201803590602001908080601f0160208091040260200160405190810160405280939291908181526020018383808284378201915050505050509192919290505050610e66565b604051808215151515815260200191505060405180910390f35b3480156103d857600080fd5b506103e1610efe565b6040518080602001828103825283818151815260200191508051906020019080838360005b83811015610421578082015181840152602081019050610406565b50505050905090810190601f16801561044e5780820380516001836020036101000a031916815260200191505b509250505060405180910390f35b34801561046857600080fd5b5061049d600480360381019080803573ffffffffffffffffffffffffffffffffffffffff169060200190929190505050610f9c565b6040518082815260200191505060405180910390f35b3480156104bf57600080fd5b5061051a600480360381019080803590602001908201803590602001908080601f0160208091040260200160405190810160405280939291908181526020018383808284378201915050505050509192919290505050610fb4565b604051808215151515815260200191505060405180910390f35b34801561054057600080fd5b50610575600480360381019080803573ffffffffffffffffffffffffffffffffffffffff16906020019092919050505061104c565b6040518082815260200191505060405180910390f35b34801561059757600080fd5b506105f2600480360381019080803590602001908201803590602001908080601f0160208091040260200160405190810160405280939291908181526020018383808284378201915050505050509192919290505050611064565b6040518082815260200191505060405180910390f35b34801561061457600080fd5b5061061d61117d565b6040518080602001828103825283818151815260200191508051906020019080838360005b8381101561065d578082015181840152602081019050610642565b50505050905090810190601f16801561068a5780820380516001836020036101000a031916815260200191505b509250505060405180910390f35b3480156106a457600080fd5b506106e3600480360381019080803573ffffffffffffffffffffffffffffffffffffffff1690602001909291908035906020019092919050505061121b565b604051808215151515815260200191505060405180910390f35b34801561070957600080fd5b50610764600480360381019080803590602001908201803590602001908080601f01602080910402602001604051908101604052809392919081815260200183838082843782019150505050505091929192905050506113dd565b005b34801561077257600080fd5b506107c7600480360381019080803573ffffffffffffffffffffffffffffffffffffffff169060200190929190803573ffffffffffffffffffffffffffffffffffffffff1690602001909291905050506114ec565b6040518082815260200191505060405180910390f35b3480156107e957600080fd5b50610844600480360381019080803590602001908201803590602001908080601f0160208091040260200160405190810160405280939291908181526020018383808284378201915050505050509192919290505050611511565b6040518082600481111561085457fe5b60ff16815260200191505060405180910390f35b60008054600181600116156101000203166002900480601f0160208091040260200160405190810160405280929190818152602001828054600181600116156101000203166002900480156108fe5780601f106108d3576101008083540402835291602001916108fe565b820191906000526020600020905b8154815290600101906020018083116108e157829003601f168201915b505050505081565b600081600860003373ffffffffffffffffffffffffffffffffffffffff1673ffffffffffffffffffffffffffffffffffffffff16815260200190815260200160002060008573ffffffffffffffffffffffffffffffffffffffff1673ffffffffffffffffffffffffffffffffffffffff168152602001908152602001600020819055508273ffffffffffffffffffffffffffffffffffffffff163373ffffffffffffffffffffffffffffffffffffffff167f8c5be1e5ebec7d5bd14f71427d1e84f3dd0314c0f7b2291e5b200ac8c7c3b925846040518082815260200191505060405180910390a36001905092915050565b60035481565b6000600760008573ffffffffffffffffffffffffffffffffffffffff1673ffffffffffffffffffffffffffffffffffffffff168152602001908152602001600020548211151515610ab7576040517f08c379a00000000000000000000000000000000000000000000000000000000081526004018080602001828103825260188152602001807f5265766572742062616c616e636520746f2073656e646572000000000000000081525060200191505060405180910390fd5b600860008573ffffffffffffffffffffffffffffffffffffffff1673ffffffffffffffffffffffffffffffffffffffff16815260200190815260200160002060003373ffffffffffffffffffffffffffffffffffffffff1673ffffffffffffffffffffffffffffffffffffffff168152602001908152602001600020548211151515610bd1576040517f08c379a00000000000000000000000000000000000000000000000000000000081526004018080602001828103825260408152602001807f5265766572742062616c616e636520746f2073656e646572206265636175736581526020017f20686520646f65736e74206861766520656e6f75676820616c6c6f77616e636581525060400191505060405180910390fd5b81600760008673ffffffffffffffffffffffffffffffffffffffff1673ffffffffffffffffffffffffffffffffffffffff1681526020019081526020016000206000828254039250508190555081600760008573ffffffffffffffffffffffffffffffffffffffff1673ffffffffffffffffffffffffffffffffffffffff1681526020019081526020016000206000828254019250508190555081600860008673ffffffffffffffffffffffffffffffffffffffff1673ffffffffffffffffffffffffffffffffffffffff16815260200190815260200160002060003373ffffffffffffffffffffffffffffffffffffffff1673ffffffffffffffffffffffffffffffffffffffff168152602001908152602001600020600082825403925050819055508273ffffffffffffffffffffffffffffffffffffffff168473ffffffffffffffffffffffffffffffffffffffff167fddf252ad1be2c89b69c2b068fc378daa952ba7f163c4a11628f55a4df523b3ef846040518082815260200191505060405180910390a3600190509392505050565b600560003373ffffffffffffffffffffffffffffffffffffffff1673ffffffffffffffffffffffffffffffffffffffff168152602001908152602001600020548111151515610e1c576040517f08c379a00000000000000000000000000000000000000000000000000000000081526004018080602001828103825260128152602001807f416d6f756e74206973206578636565646564000000000000000000000000000081525060200191505060405180910390fd5b3373ffffffffffffffffffffffffffffffffffffffff166108fc829081150290604051600060405180830381858888f19350505050158015610e62573d6000803e3d6000fd5b5050565b600060046006836040518082805190602001908083835b602083101515610ea25780518252602082019150602081019050602083039250610e7d565b6001836020036101000a038019825116818451168082178552505050505050905001915050908152602001604051809103902060006101000a81548160ff02191690836004811115610ef057fe5b021790555060019050919050565b60028054600181600116156101000203166002900480601f016020809104026020016040519081016040528092919081815260200182805460018160011615610100020316600290048015610f945780601f10610f6957610100808354040283529160200191610f94565b820191906000526020600020905b815481529060010190602001808311610f7757829003601f168201915b505050505081565b60076020528060005260406000206000915090505481565b600060036006836040518082805190602001908083835b602083101515610ff05780518252602082019150602081019050602083039250610fcb565b6001836020036101000a038019825116818451168082178552505050505050905001915050908152602001604051809103902060006101000a81548160ff0219169083600481111561103e57fe5b021790555060019050919050565b60056020528060005260406000206000915090505481565b6000806004836040518082805190602001908083835b60208310151561109f578051825260208201915060208101905060208303925061107a565b6001836020036101000a038019825116818451168082178552505050505050905001915050908152602001604051809103902060006002811015156110e057fe5b015442039050618ca0811015611172576004836040518082805190602001908083835b6020831015156111285780518252602082019150602081019050602083039250611103565b6001836020036101000a0380198251168184511680821785525050505050509050019150509081526020016040518091039020600160028110151561116957fe5b01549150611177565b600091505b50919050565b60018054600181600116156101000203166002900480601f0160208091040260200160405190810160405280929190818152602001828054600181600116156101000203166002900480156112135780601f106111e857610100808354040283529160200191611213565b820191906000526020600020905b8154815290600101906020018083116111f657829003601f168201915b505050505081565b600081600760003373ffffffffffffffffffffffffffffffffffffffff1673ffffffffffffffffffffffffffffffffffffffff16815260200190815260200160002054101515156112d4576040517f08c379a00000000000000000000000000000000000000000000000000000000081526004018080602001828103825260188152602001807f5265766572742062616c616e636520746f2053656e646572000000000000000081525060200191505060405180910390fd5b81600760003373ffffffffffffffffffffffffffffffffffffffff1673ffffffffffffffffffffffffffffffffffffffff1681526020019081526020016000206000828254039250508190555081600760008573ffffffffffffffffffffffffffffffffffffffff1673ffffffffffffffffffffffffffffffffffffffff168152602001908152602001600020600082825401925050819055508273ffffffffffffffffffffffffffffffffffffffff163373ffffffffffffffffffffffffffffffffffffffff167fddf252ad1be2c89b69c2b068fc378daa952ba7f163c4a11628f55a4df523b3ef846040518082815260200191505060405180910390a36001905092915050565b60006113e882611593565b9050426004836040518082805190602001908083835b60208310151561142357805182526020820191506020810190506020830392506113fe565b6001836020036101000a0380198251168184511680821785525050505050509050019150509081526020016040518091039020600060028110151561146457fe5b0181905550806004836040518082805190602001908083835b6020831015156114a2578051825260208201915060208101905060208303925061147d565b6001836020036101000a038019825116818451168082178552505050505050905001915050908152602001604051809103902060016002811015156114e357fe5b01819055505050565b6008602052816000526040600020602052806000526040600020600091509150505481565b60006006826040518082805190602001908083835b60208310151561154b5780518252602082019150602081019050602083039250611526565b6001836020036101000a038019825116818451168082178552505050505050905001915050908152602001604051809103902060009054906101000a900460ff169050919050565b600080600080600060014303935083406001900492507da7c5ac471b4784230fcf80dc33721d53cddd6e04c059210385c67dfe32a0915060018284886040516020018083815260200182805190602001908083835b60208310151561160d57805182526020820191506020810190506020830392506115e8565b6001836020036101000a038019825116818451168082178552505050505050905001925050506040516020818303038152906040526040518082805190602001908083835b6020831015156116775780518252602082019150602081019050602083039250611652565b6001836020036101000a0380198251168184511680821785525050505050509050019150506040518091039020600190048115156116b157fe5b040190506127108110156116c657600a810290505b809450505050509190505600a165627a7a723058203b3ab3bb56f1ffa4b68eef545dec68690beb9926b7ad8b67859db90272c38cdf0029",
  "source": "pragma solidity ^0.4.2;\n\n/**\n * The KuwaToken contract does this and that...\n */\ncontract KuwaToken {\n    //name\n    string public name = \"KuwaToken\";\n\n    //symbol\n    string public symbol = \"Kuwa\";\n\n    //standard\n    string public standard = \"KuwaToken v1.0\";//not ERC20\n\n    uint256 public totalSupply; //making public eliminates use of the function returning total supply for ERC20\n\n    // Challenges are stored here in an array. In the index 0 of the array the timestamp is\n    // recorded of the moment in which the challenge is generated in order to check for\n    // expiration. Index 1 contains the challenge.\n    // Challenges can be found with the publicKey\n    mapping(string => uint256[2]) private challenges;\n    mapping(address => uint256) public withdrawals;\n    // Unknown is set first as the default value. We do this in case a key is looked for and\n    // it is not found in the mapping\n    enum RegistrationStatus { Unknown, Funded, Waiting, Valid, Invalid }\n    mapping(string => RegistrationStatus) private registrationStatus;\n\n    mapping (address => uint256) public balanceOf; //ERC 20 balanceOf\n    mapping(address => mapping(address => uint256)) public allowance;\n\n\t//Transfer event\n    event Transfer(\n        address indexed _from,\n        address indexed _to,\n        uint256 _value\n    );\n\n\t// Approve event \n    event Approval(\n        address indexed _owner,\n        address indexed _spender,\n        uint256 _value\n    );\n\n\t//constructor\n\t//set the total number of tokens\n\t//read total number of tokens\n    constructor (uint256 _initialSupply) public{\n        // allocate the initial supply\n        balanceOf[msg.sender] = _initialSupply;\n        totalSupply = _initialSupply;\n\n    }\n    \n\t// Transfer\n    function transfer(address _to, uint256 _value) public returns(bool success){\n        // Exception if account doesnt have enough balance\n        require(balanceOf[msg.sender] >= _value, \"Revert balance to Sender\");\n        \n        //Transfer the balance\n        balanceOf[msg.sender] -= _value;\n        balanceOf[_to] += _value;\n\n        //fire Transfer event according to ERC20\n        emit Transfer(msg.sender, _to, _value);\n        \n        return true;\n    }\n\n\t//delegated transfers\n\t//approve\n    function approve(address _spender, uint256 _value) public returns (bool success) {\n        allowance[msg.sender][_spender] = _value;\n        emit Approval(msg.sender, _spender, _value);\n        return true;\n    }\n\t\n\t//transferfrom\n    function transferFrom(address _from, address _to, uint256 _value) public returns (bool success) {\n        require(_value <= balanceOf[_from], \"Revert balance to sender\");\n        require(_value <= allowance[_from][msg.sender], \"Revert balance to sender because he doesnt have enough allowance\");\n\n        balanceOf[_from] -= _value;\n        balanceOf[_to] += _value;\n\n        allowance[_from][msg.sender] -= _value;\n\n        emit Transfer(_from, _to, _value);\n\n        return true;\n    }\n\n    // fallback function for contract to receive ether\n    function() payable public {\n        withdrawals[msg.sender] = msg.value;\n        require(withdrawals[msg.sender] == msg.value);\n    }\n\n    function withdraw(uint256 _amount) public {\n        require(_amount <= withdrawals[msg.sender], \"Amount is exceeded\");\n        //require(msg.sender.send(_amount), \"Revert withdrawal\");\n        msg.sender.transfer(_amount);\n    }\n\n    // Generates a 5-digit pseudorandom number\n    function rand(string _publicKey) private view returns (uint256){\n        // Generates random number\n        uint256 lastBlockNumber = block.number - 1;\n        uint256 hashVal = uint256(blockhash(lastBlockNumber));\n        // This turns the input data into a 100-sided die\n        // by dividing by ceil(2 ^ 256 / 100000).\n        uint256 FACTOR = 1157920892373161954235709850086879078532699846656405640394575840079131296;\n        uint256 randNum = uint256(uint256(keccak256(abi.encodePacked(hashVal, _publicKey))) / FACTOR) + 1;\n        // Sometimes the leading value is 0, so because we want the number always to\n        // be 5 digits long, we just need to place it at the end of the challenge.\n        if (randNum < 10000) {\n            randNum = randNum * 10;\n        }\n        return randNum;\n    }\n\t\n    // Generates a challenge using the rand method and stores it in challenges\n    function generateChallenge(string _publicKey) public {\n        uint256 challenge = rand(_publicKey);\n        challenges[_publicKey][0] = block.timestamp;\n        challenges[_publicKey][1] = challenge;\n        // TODO: change registration status\n        // registrationStatus[_publicKey] = RegistrationStatus.Waiting; <- Not sure\n    }\n\n    // This was not part of the specification of the week but it makes sense to add it\n    function getChallenge(string _publicKey) public view returns(uint256) {\n        uint256 timeElapsed = block.timestamp - challenges[_publicKey][0];\n        // timestamp is in seconds, therefore, 36000s == 10min.\n        // We may need to change this later.\n        if (timeElapsed < 36000) {\n            return challenges[_publicKey][1];\n        }\n        // TODO: Maybe change the Registration Status here as well? Like RegistrationStatus.Expired\n        return 0;\n    }\n\n    function getRegistrationStatus(string _publicKey) public view returns(RegistrationStatus) {\n        return registrationStatus[_publicKey];\n    }\n\n    function markAsValid(string _publicKey) public returns(bool) {\n        registrationStatus[_publicKey] = RegistrationStatus.Valid;\n        return true;\n    }\n\n    function markAsInvalid(string _publicKey) public returns(bool) {\n        registrationStatus[_publicKey] = RegistrationStatus.Invalid;\n        return true;\n    }\n}\n\n",
  "sourcePath": "/home/clankster99/Documents/TCUP/tcup/SmartContracts/contracts/KuwaToken.sol",
  "compiler": {
    "name": "solc",
    "version": "0.4.24+commit.e67f0147.Emscripten.clang"
  },
  "schemaVersion": "2.0.0",
  "updatedAt": "2018-06-01T20:54:53.559Z"
}