{
  "contractName": "KuwaRegistration",
  "abi": [
    {
      "constant": true,
      "inputs": [],
      "name": "name",
      "outputs": [
        {
          "name": "",
          "type": "string"
        }
      ],
      "payable": false,
      "stateMutability": "view",
      "type": "function"
    },
    {
      "constant": true,
      "inputs": [],
      "name": "totalSupply",
      "outputs": [
        {
          "name": "",
          "type": "uint256"
        }
      ],
      "payable": false,
      "stateMutability": "view",
      "type": "function"
    },
    {
      "constant": true,
      "inputs": [],
      "name": "standard",
      "outputs": [
        {
          "name": "",
          "type": "string"
        }
      ],
      "payable": false,
      "stateMutability": "view",
      "type": "function"
    },
    {
      "constant": true,
      "inputs": [
        {
          "name": "",
          "type": "address"
        }
      ],
      "name": "balanceOf",
      "outputs": [
        {
          "name": "",
          "type": "uint256"
        }
      ],
      "payable": false,
      "stateMutability": "view",
      "type": "function"
    },
    {
      "constant": true,
      "inputs": [
        {
          "name": "",
          "type": "address"
        }
      ],
      "name": "withdrawals",
      "outputs": [
        {
          "name": "",
          "type": "uint256"
        }
      ],
      "payable": false,
      "stateMutability": "view",
      "type": "function"
    },
    {
      "constant": true,
      "inputs": [],
      "name": "symbol",
      "outputs": [
        {
          "name": "",
          "type": "string"
        }
      ],
      "payable": false,
      "stateMutability": "view",
      "type": "function"
    },
    {
      "constant": true,
      "inputs": [
        {
          "name": "",
          "type": "address"
        },
        {
          "name": "",
          "type": "address"
        }
      ],
      "name": "allowance",
      "outputs": [
        {
          "name": "",
          "type": "uint256"
        }
      ],
      "payable": false,
      "stateMutability": "view",
      "type": "function"
    },
    {
      "inputs": [
        {
          "name": "_initialSupply",
          "type": "uint256"
        },
        {
          "name": "_clientPubKey",
          "type": "string"
        }
      ],
      "payable": false,
      "stateMutability": "nonpayable",
      "type": "constructor"
    },
    {
      "payable": true,
      "stateMutability": "payable",
      "type": "fallback"
    },
    {
      "anonymous": false,
      "inputs": [
        {
          "indexed": true,
          "name": "_from",
          "type": "address"
        },
        {
          "indexed": true,
          "name": "_to",
          "type": "address"
        },
        {
          "indexed": false,
          "name": "_value",
          "type": "uint256"
        }
      ],
      "name": "Transfer",
      "type": "event"
    },
    {
      "anonymous": false,
      "inputs": [
        {
          "indexed": true,
          "name": "_owner",
          "type": "address"
        },
        {
          "indexed": true,
          "name": "_spender",
          "type": "address"
        },
        {
          "indexed": false,
          "name": "_value",
          "type": "uint256"
        }
      ],
      "name": "Approval",
      "type": "event"
    },
    {
      "anonymous": false,
      "inputs": [
        {
          "indexed": false,
          "name": "_challenge",
          "type": "uint256"
        },
        {
          "indexed": false,
          "name": "_registrationStatus",
          "type": "uint8"
        }
      ],
      "name": "ChallengeValue",
      "type": "event"
    },
    {
      "constant": false,
      "inputs": [
        {
          "name": "_to",
          "type": "address"
        },
        {
          "name": "_value",
          "type": "uint256"
        }
      ],
      "name": "transfer",
      "outputs": [
        {
          "name": "success",
          "type": "bool"
        }
      ],
      "payable": false,
      "stateMutability": "nonpayable",
      "type": "function"
    },
    {
      "constant": false,
      "inputs": [
        {
          "name": "_spender",
          "type": "address"
        },
        {
          "name": "_value",
          "type": "uint256"
        }
      ],
      "name": "approve",
      "outputs": [
        {
          "name": "success",
          "type": "bool"
        }
      ],
      "payable": false,
      "stateMutability": "nonpayable",
      "type": "function"
    },
    {
      "constant": false,
      "inputs": [
        {
          "name": "_from",
          "type": "address"
        },
        {
          "name": "_to",
          "type": "address"
        },
        {
          "name": "_value",
          "type": "uint256"
        }
      ],
      "name": "transferFrom",
      "outputs": [
        {
          "name": "success",
          "type": "bool"
        }
      ],
      "payable": false,
      "stateMutability": "nonpayable",
      "type": "function"
    },
    {
      "constant": false,
      "inputs": [
        {
          "name": "_amount",
          "type": "uint256"
        }
      ],
      "name": "withdraw",
      "outputs": [],
      "payable": false,
      "stateMutability": "nonpayable",
      "type": "function"
    },
    {
      "constant": false,
      "inputs": [],
      "name": "generateChallenge",
      "outputs": [],
      "payable": false,
      "stateMutability": "nonpayable",
      "type": "function"
    },
    {
      "constant": false,
      "inputs": [],
      "name": "getChallenge",
      "outputs": [],
      "payable": false,
      "stateMutability": "nonpayable",
      "type": "function"
    },
    {
      "constant": true,
      "inputs": [],
      "name": "getRegistrationStatus",
      "outputs": [
        {
          "name": "",
          "type": "uint8"
        }
      ],
      "payable": false,
      "stateMutability": "view",
      "type": "function"
    },
    {
      "constant": false,
      "inputs": [],
      "name": "markAsValid",
      "outputs": [
        {
          "name": "success",
          "type": "bool"
        }
      ],
      "payable": false,
      "stateMutability": "nonpayable",
      "type": "function"
    },
    {
      "constant": false,
      "inputs": [],
      "name": "markAsInvalid",
      "outputs": [
        {
          "name": "success",
          "type": "bool"
        }
      ],
      "payable": false,
      "stateMutability": "nonpayable",
      "type": "function"
    },
    {
      "constant": false,
      "inputs": [],
      "name": "killContract",
      "outputs": [],
      "payable": false,
      "stateMutability": "nonpayable",
      "type": "function"
    }
  ],
  "bytecode": "0x60806040526040805190810160405280600981526020017f4b757761546f6b656e00000000000000000000000000000000000000000000008152506000908051906020019062000051929190620001d7565b506040805190810160405280600481526020017f4b75776100000000000000000000000000000000000000000000000000000000815250600190805190602001906200009f929190620001d7565b506040805190810160405280600e81526020017f4b757761546f6b656e2076312e3000000000000000000000000000000000000081525060029080519060200190620000ed929190620001d7565b50348015620000fb57600080fd5b50604051620016f4380380620016f4833981018060405281019080805190602001909291908051820192919050505081600a60003373ffffffffffffffffffffffffffffffffffffffff1673ffffffffffffffffffffffffffffffffffffffff168152602001908152602001600020819055508160038190555080600490805190602001906200018d929190620001d7565b5033600560006101000a81548173ffffffffffffffffffffffffffffffffffffffff021916908373ffffffffffffffffffffffffffffffffffffffff160217905550505062000286565b828054600181600116156101000203166002900490600052602060002090601f016020900481019282601f106200021a57805160ff19168380011785556200024b565b828001600101855582156200024b579182015b828111156200024a5782518255916020019190600101906200022d565b5b5090506200025a91906200025e565b5090565b6200028391905b808211156200027f57600081600090555060010162000265565b5090565b90565b61145e80620002966000396000f3006080604052600436106100f1576000357c0100000000000000000000000000000000000000000000000000000000900463ffffffff16806306fdde0314610184578063095ea7b314610214578063179a6f181461027957806318160ddd146102a85780631c02708d146102d357806323b872dd146102ea5780632e1a7d4d1461036f5780635a3b7e421461039c57806370a082311461042c578063759014f0146104835780637a9262a21461049a57806384924e5c146104f1578063867cf8391461052057806395d89b4114610537578063a9059cbb146105c7578063dd62ed3e1461062c578063e35fb241146106a3575b34600860003373ffffffffffffffffffffffffffffffffffffffff1673ffffffffffffffffffffffffffffffffffffffff1681526020019081526020016000208190555034600860003373ffffffffffffffffffffffffffffffffffffffff1673ffffffffffffffffffffffffffffffffffffffff1681526020019081526020016000205414151561018257600080fd5b005b34801561019057600080fd5b506101996106dc565b6040518080602001828103825283818151815260200191508051906020019080838360005b838110156101d95780820151818401526020810190506101be565b50505050905090810190601f1680156102065780820380516001836020036101000a031916815260200191505b509250505060405180910390f35b34801561022057600080fd5b5061025f600480360381019080803573ffffffffffffffffffffffffffffffffffffffff1690602001909291908035906020019092919050505061077a565b604051808215151515815260200191505060405180910390f35b34801561028557600080fd5b5061028e61086c565b604051808215151515815260200191505060405180910390f35b3480156102b457600080fd5b506102bd610899565b6040518082815260200191505060405180910390f35b3480156102df57600080fd5b506102e861089f565b005b3480156102f657600080fd5b50610355600480360381019080803573ffffffffffffffffffffffffffffffffffffffff169060200190929190803573ffffffffffffffffffffffffffffffffffffffff16906020019092919080359060200190929190505050610936565b604051808215151515815260200191505060405180910390f35b34801561037b57600080fd5b5061039a60048036038101908080359060200190929190505050610c9d565b005b3480156103a857600080fd5b506103b1610d9e565b6040518080602001828103825283818151815260200191508051906020019080838360005b838110156103f15780820151818401526020810190506103d6565b50505050905090810190601f16801561041e5780820380516001836020036101000a031916815260200191505b509250505060405180910390f35b34801561043857600080fd5b5061046d600480360381019080803573ffffffffffffffffffffffffffffffffffffffff169060200190929190505050610e3c565b6040518082815260200191505060405180910390f35b34801561048f57600080fd5b50610498610e54565b005b3480156104a657600080fd5b506104db600480360381019080803573ffffffffffffffffffffffffffffffffffffffff169060200190929190505050610f3c565b6040518082815260200191505060405180910390f35b3480156104fd57600080fd5b50610506610f54565b604051808215151515815260200191505060405180910390f35b34801561052c57600080fd5b50610535610f81565b005b34801561054357600080fd5b5061054c611057565b6040518080602001828103825283818151815260200191508051906020019080838360005b8381101561058c578082015181840152602081019050610571565b50505050905090810190601f1680156105b95780820380516001836020036101000a031916815260200191505b509250505060405180910390f35b3480156105d357600080fd5b50610612600480360381019080803573ffffffffffffffffffffffffffffffffffffffff169060200190929190803590602001909291905050506110f5565b604051808215151515815260200191505060405180910390f35b34801561063857600080fd5b5061068d600480360381019080803573ffffffffffffffffffffffffffffffffffffffff169060200190929190803573ffffffffffffffffffffffffffffffffffffffff1690602001909291905050506112b7565b6040518082815260200191505060405180910390f35b3480156106af57600080fd5b506106b86112dc565b604051808260048111156106c857fe5b60ff16815260200191505060405180910390f35b60008054600181600116156101000203166002900480601f0160208091040260200160405190810160405280929190818152602001828054600181600116156101000203166002900480156107725780601f1061074757610100808354040283529160200191610772565b820191906000526020600020905b81548152906001019060200180831161075557829003601f168201915b505050505081565b600081600b60003373ffffffffffffffffffffffffffffffffffffffff1673ffffffffffffffffffffffffffffffffffffffff16815260200190815260200160002060008573ffffffffffffffffffffffffffffffffffffffff1673ffffffffffffffffffffffffffffffffffffffff168152602001908152602001600020819055508273ffffffffffffffffffffffffffffffffffffffff163373ffffffffffffffffffffffffffffffffffffffff167f8c5be1e5ebec7d5bd14f71427d1e84f3dd0314c0f7b2291e5b200ac8c7c3b925846040518082815260200191505060405180910390a36001905092915050565b60006004600960006101000a81548160ff0219169083600481111561088d57fe5b02179055506001905090565b60035481565b600560009054906101000a900473ffffffffffffffffffffffffffffffffffffffff1673ffffffffffffffffffffffffffffffffffffffff163373ffffffffffffffffffffffffffffffffffffffff161415156108fb57600080fd5b600560009054906101000a900473ffffffffffffffffffffffffffffffffffffffff1673ffffffffffffffffffffffffffffffffffffffff16ff5b6000600a60008573ffffffffffffffffffffffffffffffffffffffff1673ffffffffffffffffffffffffffffffffffffffff1681526020019081526020016000205482111515156109ef576040517f08c379a00000000000000000000000000000000000000000000000000000000081526004018080602001828103825260188152602001807f5265766572742062616c616e636520746f2073656e646572000000000000000081525060200191505060405180910390fd5b600b60008573ffffffffffffffffffffffffffffffffffffffff1673ffffffffffffffffffffffffffffffffffffffff16815260200190815260200160002060003373ffffffffffffffffffffffffffffffffffffffff1673ffffffffffffffffffffffffffffffffffffffff168152602001908152602001600020548211151515610b09576040517f08c379a00000000000000000000000000000000000000000000000000000000081526004018080602001828103825260408152602001807f5265766572742062616c616e636520746f2073656e646572206265636175736581526020017f20686520646f65736e74206861766520656e6f75676820616c6c6f77616e636581525060400191505060405180910390fd5b81600a60008673ffffffffffffffffffffffffffffffffffffffff1673ffffffffffffffffffffffffffffffffffffffff1681526020019081526020016000206000828254039250508190555081600a60008573ffffffffffffffffffffffffffffffffffffffff1673ffffffffffffffffffffffffffffffffffffffff1681526020019081526020016000206000828254019250508190555081600b60008673ffffffffffffffffffffffffffffffffffffffff1673ffffffffffffffffffffffffffffffffffffffff16815260200190815260200160002060003373ffffffffffffffffffffffffffffffffffffffff1673ffffffffffffffffffffffffffffffffffffffff168152602001908152602001600020600082825403925050819055508273ffffffffffffffffffffffffffffffffffffffff168473ffffffffffffffffffffffffffffffffffffffff167fddf252ad1be2c89b69c2b068fc378daa952ba7f163c4a11628f55a4df523b3ef846040518082815260200191505060405180910390a3600190509392505050565b600860003373ffffffffffffffffffffffffffffffffffffffff1673ffffffffffffffffffffffffffffffffffffffff168152602001908152602001600020548111151515610d54576040517f08c379a00000000000000000000000000000000000000000000000000000000081526004018080602001828103825260128152602001807f416d6f756e74206973206578636565646564000000000000000000000000000081525060200191505060405180910390fd5b3373ffffffffffffffffffffffffffffffffffffffff166108fc829081150290604051600060405180830381858888f19350505050158015610d9a573d6000803e3d6000fd5b5050565b60028054600181600116156101000203166002900480601f016020809104026020016040519081016040528092919081815260200182805460018160011615610100020316600290048015610e345780601f10610e0957610100808354040283529160200191610e34565b820191906000526020600020905b815481529060010190602001808311610e1757829003601f168201915b505050505081565b600a6020528060005260406000206000915090505481565b600060075442039050618ca0811015610ec6577f524db186365974ac5880c2883db5b5c84cc30e246685e9e4130578435c0418a3600654600960009054906101000a900460ff1660405180838152602001826004811115610eb157fe5b60ff1681526020019250505060405180910390a15b7f524db186365974ac5880c2883db5b5c84cc30e246685e9e4130578435c0418a36000600160405180838152602001826004811115610f0157fe5b60ff1681526020019250505060405180910390a16001600960006101000a81548160ff02191690836004811115610f3457fe5b021790555050565b60086020528060005260406000206000915090505481565b60006003600960006101000a81548160ff02191690836004811115610f7557fe5b02179055506001905090565b61102460048054600181600116156101000203166002900480601f01602080910402602001604051908101604052809291908181526020018280546001816001161561010002031660029004801561101a5780601f10610fef5761010080835404028352916020019161101a565b820191906000526020600020905b815481529060010190602001808311610ffd57829003601f168201915b50505050506112f3565b600681905550426007819055506000600960006101000a81548160ff0219169083600481111561105057fe5b0217905550565b60018054600181600116156101000203166002900480601f0160208091040260200160405190810160405280929190818152602001828054600181600116156101000203166002900480156110ed5780601f106110c2576101008083540402835291602001916110ed565b820191906000526020600020905b8154815290600101906020018083116110d057829003601f168201915b505050505081565b600081600a60003373ffffffffffffffffffffffffffffffffffffffff1673ffffffffffffffffffffffffffffffffffffffff16815260200190815260200160002054101515156111ae576040517f08c379a00000000000000000000000000000000000000000000000000000000081526004018080602001828103825260188152602001807f5265766572742062616c616e636520746f2053656e646572000000000000000081525060200191505060405180910390fd5b81600a60003373ffffffffffffffffffffffffffffffffffffffff1673ffffffffffffffffffffffffffffffffffffffff1681526020019081526020016000206000828254039250508190555081600a60008573ffffffffffffffffffffffffffffffffffffffff1673ffffffffffffffffffffffffffffffffffffffff168152602001908152602001600020600082825401925050819055508273ffffffffffffffffffffffffffffffffffffffff163373ffffffffffffffffffffffffffffffffffffffff167fddf252ad1be2c89b69c2b068fc378daa952ba7f163c4a11628f55a4df523b3ef846040518082815260200191505060405180910390a36001905092915050565b600b602052816000526040600020602052806000526040600020600091509150505481565b6000600960009054906101000a900460ff16905090565b600080600080600060014303935083406001900492507da7c5ac471b4784230fcf80dc33721d53cddd6e04c059210385c67dfe32a0915060018284886040516020018083815260200182805190602001908083835b60208310151561136d5780518252602082019150602081019050602083039250611348565b6001836020036101000a038019825116818451168082178552505050505050905001925050506040516020818303038152906040526040518082805190602001908083835b6020831015156113d757805182526020820191506020810190506020830392506113b2565b6001836020036101000a03801982511681845116808217855250505050505090500191505060405180910390206001900481151561141157fe5b0401905061271081101561142657600a810290505b809450505050509190505600a165627a7a72305820fa03fccbf66c93d7ba390281e977d118d8fecc8c5d06d3c69d88f1d10213a46f0029",
  "source": "pragma solidity ^0.4.2;\n\n/**\n * The KuwaToken contract does this and that...\n */\ncontract KuwaRegistration {\n    //name\n    string public name = \"KuwaToken\";\n\n    //symbol\n    string public symbol = \"Kuwa\";\n\n    //standard\n    string public standard = \"KuwaToken v1.0\";//not ERC20\n\n    uint256 public totalSupply; //making public eliminates use of the function returning total supply for ERC20\n\n    string private clientPubKey;\n    address private sponsorAddress;\n\n    uint256 private challenge;\n    uint256 private challengeCreationTime;\n    \n    // May need to remove this\n    mapping(address => uint256) public withdrawals;\n\n    enum RegistrationStatus { ChallengeGenerated, ChallengeExpired, WaitingForValidation, Valid, Invalid }\n    RegistrationStatus private registrationStatus;\n\n    mapping (address => uint256) public balanceOf; //ERC 20 balanceOf\n    mapping(address => mapping(address => uint256)) public allowance;\n\n\t//Transfer event\n    event Transfer(\n        address indexed _from,\n        address indexed _to,\n        uint256 _value\n    );\n\n\t// Approve event \n    event Approval(\n        address indexed _owner,\n        address indexed _spender,\n        uint256 _value\n    );\n\n    event ChallengeValue (\n        uint256 _challenge,\n        RegistrationStatus _registrationStatus\n    );\n\n\t//constructor\n\t//set the total number of tokens\n\t//read total number of tokens\n    constructor (uint256 _initialSupply, string _clientPubKey) public{\n        // allocate the initial supply\n        balanceOf[msg.sender] = _initialSupply;\n        totalSupply = _initialSupply;\n        clientPubKey = _clientPubKey;\n        sponsorAddress = msg.sender;\n    }\n    \n\t// Transfer\n    function transfer(address _to, uint256 _value) public returns(bool success){\n        // Exception if account doesnt have enough balance\n        require(balanceOf[msg.sender] >= _value, \"Revert balance to Sender\");\n        \n        //Transfer the balance\n        balanceOf[msg.sender] -= _value;\n        balanceOf[_to] += _value;\n\n        //fire Transfer event according to ERC20\n        emit Transfer(msg.sender, _to, _value);\n        \n        return true;\n    }\n\n\t//delegated transfers\n\t//approve\n    function approve(address _spender, uint256 _value) public returns (bool success) {\n        allowance[msg.sender][_spender] = _value;\n        emit Approval(msg.sender, _spender, _value);\n        return true;\n    }\n\t\n\t//transferfrom\n    function transferFrom(address _from, address _to, uint256 _value) public returns (bool success) {\n        require(_value <= balanceOf[_from], \"Revert balance to sender\");\n        require(_value <= allowance[_from][msg.sender], \"Revert balance to sender because he doesnt have enough allowance\");\n\n        balanceOf[_from] -= _value;\n        balanceOf[_to] += _value;\n\n        allowance[_from][msg.sender] -= _value;\n\n        emit Transfer(_from, _to, _value);\n\n        return true;\n    }\n\n    // fallback function for contract to receive ether\n    function() payable public {\n        withdrawals[msg.sender] = msg.value;\n        require(withdrawals[msg.sender] == msg.value);\n    }\n\n    function withdraw(uint256 _amount) public {\n        require(_amount <= withdrawals[msg.sender], \"Amount is exceeded\");\n        //require(msg.sender.send(_amount), \"Revert withdrawal\");\n        msg.sender.transfer(_amount);\n    }\n\n    // Generates a 5-digit pseudorandom number\n    function rand(string _publicKey) private view returns (uint256){\n        // Generates random number\n        uint256 lastBlockNumber = block.number - 1;\n        uint256 hashVal = uint256(blockhash(lastBlockNumber));\n        // This turns the input data into a 100-sided die\n        // by dividing by ceil(2 ^ 256 / 100000).\n        uint256 FACTOR = 1157920892373161954235709850086879078532699846656405640394575840079131296;\n        uint256 randNum = uint256(uint256(keccak256(abi.encodePacked(hashVal, _publicKey))) / FACTOR) + 1;\n        // Sometimes the leading value is 0, so because we want the number always to\n        // be 5 digits long, we just need to place it at the end of the challenge.\n        if (randNum < 10000) {\n            randNum = randNum * 10;\n        }\n        return randNum;\n    }\n\t\n    // Generates a challenge using the rand method and stores it in challenges\n    function generateChallenge() public {\n        challenge = rand(clientPubKey);\n        challengeCreationTime = block.timestamp;\n        registrationStatus = RegistrationStatus.ChallengeGenerated;\n    }\n\n    // This was not part of the specification of the week but it makes sense to add it\n    function getChallenge() public {\n        uint256 timeElapsed = block.timestamp - challengeCreationTime;\n        // timestamp is in seconds, therefore, 36000s == 10min.\n        // We may need to change this later.\n        if (timeElapsed < 36000) {\n            emit ChallengeValue(challenge, registrationStatus);\n        }\n        emit ChallengeValue(0, RegistrationStatus.ChallengeExpired);\n        registrationStatus = RegistrationStatus.ChallengeExpired;\n    }\n\n    function getRegistrationStatus() public view returns(RegistrationStatus) {\n        return registrationStatus;\n    }\n\n    function markAsValid() public returns(bool success) {\n        registrationStatus = RegistrationStatus.Valid;\n        return true;\n    }\n\n    function markAsInvalid() public returns(bool success) {\n        registrationStatus = RegistrationStatus.Invalid;\n        return true;\n    }\n\n    /* Kills this contract and refunds the balance to the Sponsor */\n    function killContract() public {\n        require(msg.sender == sponsorAddress);\n        selfdestruct(sponsorAddress);\n    }\n}\n\n",
  "sourcePath": "/home/clankster99/Documents/TCUP/tcup/SmartContracts/contracts/KuwaRegistration.sol",
  "compiler": {
    "name": "solc",
    "version": "0.4.24+commit.e67f0147.Emscripten.clang"
  },
  "schemaVersion": "2.0.0",
  "updatedAt": "2018-06-06T00:02:37.760Z"
}