{
  "contractName": "KuwaToken",
  "abi": [
    {
      "constant": true,
      "inputs": [],
      "name": "name",
      "outputs": [
        {
          "name": "",
          "type": "string"
        }
      ],
      "payable": false,
      "stateMutability": "view",
      "type": "function"
    },
    {
      "constant": true,
      "inputs": [],
      "name": "totalSupply",
      "outputs": [
        {
          "name": "",
          "type": "uint256"
        }
      ],
      "payable": false,
      "stateMutability": "view",
      "type": "function"
    },
    {
      "constant": true,
      "inputs": [
        {
          "name": "",
          "type": "uint256"
        }
      ],
      "name": "registrationStatus",
      "outputs": [
        {
          "name": "",
          "type": "uint8"
        }
      ],
      "payable": false,
      "stateMutability": "view",
      "type": "function"
    },
    {
      "constant": true,
      "inputs": [],
      "name": "standard",
      "outputs": [
        {
          "name": "",
          "type": "string"
        }
      ],
      "payable": false,
      "stateMutability": "view",
      "type": "function"
    },
    {
      "constant": true,
      "inputs": [
        {
          "name": "",
          "type": "address"
        }
      ],
      "name": "balanceOf",
      "outputs": [
        {
          "name": "",
          "type": "uint256"
        }
      ],
      "payable": false,
      "stateMutability": "view",
      "type": "function"
    },
    {
      "constant": true,
      "inputs": [],
      "name": "symbol",
      "outputs": [
        {
          "name": "",
          "type": "string"
        }
      ],
      "payable": false,
      "stateMutability": "view",
      "type": "function"
    },
    {
      "constant": true,
      "inputs": [
        {
          "name": "",
          "type": "address"
        },
        {
          "name": "",
          "type": "address"
        }
      ],
      "name": "allowance",
      "outputs": [
        {
          "name": "",
          "type": "uint256"
        }
      ],
      "payable": false,
      "stateMutability": "view",
      "type": "function"
    },
    {
      "constant": true,
      "inputs": [
        {
          "name": "",
          "type": "uint256"
        },
        {
          "name": "",
          "type": "uint256"
        }
      ],
      "name": "challenges",
      "outputs": [
        {
          "name": "",
          "type": "uint256"
        }
      ],
      "payable": false,
      "stateMutability": "view",
      "type": "function"
    },
    {
      "inputs": [
        {
          "name": "_initialSupply",
          "type": "uint256"
        }
      ],
      "payable": false,
      "stateMutability": "nonpayable",
      "type": "constructor"
    },
    {
      "anonymous": false,
      "inputs": [
        {
          "indexed": true,
          "name": "_from",
          "type": "address"
        },
        {
          "indexed": true,
          "name": "_to",
          "type": "address"
        },
        {
          "indexed": false,
          "name": "_value",
          "type": "uint256"
        }
      ],
      "name": "Transfer",
      "type": "event"
    },
    {
      "anonymous": false,
      "inputs": [
        {
          "indexed": true,
          "name": "_owner",
          "type": "address"
        },
        {
          "indexed": true,
          "name": "_spender",
          "type": "address"
        },
        {
          "indexed": false,
          "name": "_value",
          "type": "uint256"
        }
      ],
      "name": "Approval",
      "type": "event"
    },
    {
      "constant": false,
      "inputs": [
        {
          "name": "_to",
          "type": "address"
        },
        {
          "name": "_value",
          "type": "uint256"
        }
      ],
      "name": "transfer",
      "outputs": [
        {
          "name": "success",
          "type": "bool"
        }
      ],
      "payable": false,
      "stateMutability": "nonpayable",
      "type": "function"
    },
    {
      "constant": false,
      "inputs": [
        {
          "name": "_spender",
          "type": "address"
        },
        {
          "name": "_value",
          "type": "uint256"
        }
      ],
      "name": "approve",
      "outputs": [
        {
          "name": "success",
          "type": "bool"
        }
      ],
      "payable": false,
      "stateMutability": "nonpayable",
      "type": "function"
    },
    {
      "constant": false,
      "inputs": [
        {
          "name": "_from",
          "type": "address"
        },
        {
          "name": "_to",
          "type": "address"
        },
        {
          "name": "_value",
          "type": "uint256"
        }
      ],
      "name": "transferFrom",
      "outputs": [
        {
          "name": "success",
          "type": "bool"
        }
      ],
      "payable": false,
      "stateMutability": "nonpayable",
      "type": "function"
    },
    {
      "constant": false,
      "inputs": [
        {
          "name": "_gas",
          "type": "uint256"
        }
      ],
      "name": "storeRequest",
      "outputs": [],
      "payable": true,
      "stateMutability": "payable",
      "type": "function"
    },
    {
      "constant": false,
      "inputs": [
        {
          "name": "_publicKey",
          "type": "uint256"
        }
      ],
      "name": "generateChallenge",
      "outputs": [],
      "payable": false,
      "stateMutability": "nonpayable",
      "type": "function"
    },
    {
      "constant": true,
      "inputs": [
        {
          "name": "_publicKey",
          "type": "uint256"
        }
      ],
      "name": "getChallenge",
      "outputs": [
        {
          "name": "",
          "type": "uint256"
        }
      ],
      "payable": false,
      "stateMutability": "view",
      "type": "function"
    },
    {
      "constant": true,
      "inputs": [
        {
          "name": "_publicKey",
          "type": "uint256"
        }
      ],
      "name": "getRegistrationStatus",
      "outputs": [
        {
          "name": "",
          "type": "uint8"
        }
      ],
      "payable": false,
      "stateMutability": "view",
      "type": "function"
    },
    {
      "constant": false,
      "inputs": [
        {
          "name": "_publicKey",
          "type": "uint256"
        }
      ],
      "name": "markAsValid",
      "outputs": [
        {
          "name": "",
          "type": "bool"
        }
      ],
      "payable": false,
      "stateMutability": "nonpayable",
      "type": "function"
    },
    {
      "constant": false,
      "inputs": [
        {
          "name": "_publicKey",
          "type": "uint256"
        }
      ],
      "name": "markAsInvalid",
      "outputs": [
        {
          "name": "",
          "type": "bool"
        }
      ],
      "payable": false,
      "stateMutability": "nonpayable",
      "type": "function"
    }
  ],
  "bytecode": "0x60806040526040805190810160405280600981526020017f4b757761546f6b656e0000000000000000000000000000000000000000000000815250600090805190602001906200005192919062000171565b506040805190810160405280600481526020017f4b75776100000000000000000000000000000000000000000000000000000000815250600190805190602001906200009f92919062000171565b506040805190810160405280600e81526020017f4b757761546f6b656e2076312e3000000000000000000000000000000000000081525060029080519060200190620000ed92919062000171565b50348015620000fb57600080fd5b50604051602080620014a88339810180604052810190808051906020019092919050505080600660003373ffffffffffffffffffffffffffffffffffffffff1673ffffffffffffffffffffffffffffffffffffffff16815260200190815260200160002081905550806003819055505062000220565b828054600181600116156101000203166002900490600052602060002090601f016020900481019282601f10620001b457805160ff1916838001178555620001e5565b82800160010185558215620001e5579182015b82811115620001e4578251825591602001919060010190620001c7565b5b509050620001f49190620001f8565b5090565b6200021d91905b8082111562000219576000816000905550600101620001ff565b5090565b90565b61127880620002306000396000f3006080604052600436106100f1576000357c0100000000000000000000000000000000000000000000000000000000900463ffffffff16806306fdde03146100f6578063095ea7b31461018657806318160ddd146101eb57806319c5c507146102165780631a593c41146102655780631bdd4b741461028557806323b872dd146102c657806351d17e991461034b578063535eb3441461039a5780635a3b7e42146103df57806370a082311461046f57806395d89b41146104c6578063a9059cbb14610556578063dd62ed3e146105bb578063dd9e8de914610632578063e9489a611461067d578063f864b52f146106aa575b600080fd5b34801561010257600080fd5b5061010b6106ef565b6040518080602001828103825283818151815260200191508051906020019080838360005b8381101561014b578082015181840152602081019050610130565b50505050905090810190601f1680156101785780820380516001836020036101000a031916815260200191505b509250505060405180910390f35b34801561019257600080fd5b506101d1600480360381019080803573ffffffffffffffffffffffffffffffffffffffff1690602001909291908035906020019092919050505061078d565b604051808215151515815260200191505060405180910390f35b3480156101f757600080fd5b5061020061087f565b6040518082815260200191505060405180910390f35b34801561022257600080fd5b5061024160048036038101908080359060200190929190505050610885565b6040518082600481111561025157fe5b60ff16815260200191505060405180910390f35b610283600480360381019080803590602001909291905050506108af565b005b34801561029157600080fd5b506102b060048036038101908080359060200190929190505050610929565b6040518082815260200191505060405180910390f35b3480156102d257600080fd5b50610331600480360381019080803573ffffffffffffffffffffffffffffffffffffffff169060200190929190803573ffffffffffffffffffffffffffffffffffffffff16906020019092919080359060200190929190505050610992565b604051808215151515815260200191505060405180910390f35b34801561035757600080fd5b5061037660048036038101908080359060200190929190505050610cf9565b6040518082600481111561038657fe5b60ff16815260200191505060405180910390f35b3480156103a657600080fd5b506103c560048036038101908080359060200190929190505050610d19565b604051808215151515815260200191505060405180910390f35b3480156103eb57600080fd5b506103f4610d59565b6040518080602001828103825283818151815260200191508051906020019080838360005b83811015610434578082015181840152602081019050610419565b50505050905090810190601f1680156104615780820380516001836020036101000a031916815260200191505b509250505060405180910390f35b34801561047b57600080fd5b506104b0600480360381019080803573ffffffffffffffffffffffffffffffffffffffff169060200190929190505050610df7565b6040518082815260200191505060405180910390f35b3480156104d257600080fd5b506104db610e0f565b6040518080602001828103825283818151815260200191508051906020019080838360005b8381101561051b578082015181840152602081019050610500565b50505050905090810190601f1680156105485780820380516001836020036101000a031916815260200191505b509250505060405180910390f35b34801561056257600080fd5b506105a1600480360381019080803573ffffffffffffffffffffffffffffffffffffffff16906020019092919080359060200190929190505050610ead565b604051808215151515815260200191505060405180910390f35b3480156105c757600080fd5b5061061c600480360381019080803573ffffffffffffffffffffffffffffffffffffffff169060200190929190803573ffffffffffffffffffffffffffffffffffffffff16906020019092919050505061106f565b6040518082815260200191505060405180910390f35b34801561063e57600080fd5b506106676004803603810190808035906020019092919080359060200190929190505050611094565b6040518082815260200191505060405180910390f35b34801561068957600080fd5b506106a8600480360381019080803590602001909291905050506110bb565b005b3480156106b657600080fd5b506106d56004803603810190808035906020019092919050505061111a565b604051808215151515815260200191505060405180910390f35b60008054600181600116156101000203166002900480601f0160208091040260200160405190810160405280929190818152602001828054600181600116156101000203166002900480156107855780601f1061075a57610100808354040283529160200191610785565b820191906000526020600020905b81548152906001019060200180831161076857829003601f168201915b505050505081565b600081600760003373ffffffffffffffffffffffffffffffffffffffff1673ffffffffffffffffffffffffffffffffffffffff16815260200190815260200160002060008573ffffffffffffffffffffffffffffffffffffffff1673ffffffffffffffffffffffffffffffffffffffff168152602001908152602001600020819055508273ffffffffffffffffffffffffffffffffffffffff163373ffffffffffffffffffffffffffffffffffffffff167f8c5be1e5ebec7d5bd14f71427d1e84f3dd0314c0f7b2291e5b200ac8c7c3b925846040518082815260200191505060405180910390a36001905092915050565b60035481565b60006005600083815260200190815260200160002060009054906101000a900460ff169050919050565b8034141515610926576040517f08c379a00000000000000000000000000000000000000000000000000000000081526004018080602001828103825260188152602001807f5265766572742062616c616e636520746f2073656e646572000000000000000081525060200191505060405180910390fd5b50565b60008060046000848152602001908152602001600020600060028110151561094d57fe5b015442039050618ca08110156109875760046000848152602001908152602001600020600160028110151561097e57fe5b0154915061098c565b600091505b50919050565b6000600660008573ffffffffffffffffffffffffffffffffffffffff1673ffffffffffffffffffffffffffffffffffffffff168152602001908152602001600020548211151515610a4b576040517f08c379a00000000000000000000000000000000000000000000000000000000081526004018080602001828103825260188152602001807f5265766572742062616c616e636520746f2073656e646572000000000000000081525060200191505060405180910390fd5b600760008573ffffffffffffffffffffffffffffffffffffffff1673ffffffffffffffffffffffffffffffffffffffff16815260200190815260200160002060003373ffffffffffffffffffffffffffffffffffffffff1673ffffffffffffffffffffffffffffffffffffffff168152602001908152602001600020548211151515610b65576040517f08c379a00000000000000000000000000000000000000000000000000000000081526004018080602001828103825260408152602001807f5265766572742062616c616e636520746f2073656e646572206265636175736581526020017f20686520646f65736e74206861766520656e6f75676820616c6c6f77616e636581525060400191505060405180910390fd5b81600660008673ffffffffffffffffffffffffffffffffffffffff1673ffffffffffffffffffffffffffffffffffffffff1681526020019081526020016000206000828254039250508190555081600660008573ffffffffffffffffffffffffffffffffffffffff1673ffffffffffffffffffffffffffffffffffffffff1681526020019081526020016000206000828254019250508190555081600760008673ffffffffffffffffffffffffffffffffffffffff1673ffffffffffffffffffffffffffffffffffffffff16815260200190815260200160002060003373ffffffffffffffffffffffffffffffffffffffff1673ffffffffffffffffffffffffffffffffffffffff168152602001908152602001600020600082825403925050819055508273ffffffffffffffffffffffffffffffffffffffff168473ffffffffffffffffffffffffffffffffffffffff167fddf252ad1be2c89b69c2b068fc378daa952ba7f163c4a11628f55a4df523b3ef846040518082815260200191505060405180910390a3600190509392505050565b60056020528060005260406000206000915054906101000a900460ff1681565b600060046005600084815260200190815260200160002060006101000a81548160ff02191690836004811115610d4b57fe5b021790555060019050919050565b60028054600181600116156101000203166002900480601f016020809104026020016040519081016040528092919081815260200182805460018160011615610100020316600290048015610def5780601f10610dc457610100808354040283529160200191610def565b820191906000526020600020905b815481529060010190602001808311610dd257829003601f168201915b505050505081565b60066020528060005260406000206000915090505481565b60018054600181600116156101000203166002900480601f016020809104026020016040519081016040528092919081815260200182805460018160011615610100020316600290048015610ea55780601f10610e7a57610100808354040283529160200191610ea5565b820191906000526020600020905b815481529060010190602001808311610e8857829003601f168201915b505050505081565b600081600660003373ffffffffffffffffffffffffffffffffffffffff1673ffffffffffffffffffffffffffffffffffffffff1681526020019081526020016000205410151515610f66576040517f08c379a00000000000000000000000000000000000000000000000000000000081526004018080602001828103825260188152602001807f5265766572742062616c616e636520746f2053656e646572000000000000000081525060200191505060405180910390fd5b81600660003373ffffffffffffffffffffffffffffffffffffffff1673ffffffffffffffffffffffffffffffffffffffff1681526020019081526020016000206000828254039250508190555081600660008573ffffffffffffffffffffffffffffffffffffffff1673ffffffffffffffffffffffffffffffffffffffff168152602001908152602001600020600082825401925050819055508273ffffffffffffffffffffffffffffffffffffffff163373ffffffffffffffffffffffffffffffffffffffff167fddf252ad1be2c89b69c2b068fc378daa952ba7f163c4a11628f55a4df523b3ef846040518082815260200191505060405180910390a36001905092915050565b6007602052816000526040600020602052806000526040600020600091509150505481565b6004602052816000526040600020816002811015156110af57fe5b01600091509150505481565b60006110c68261115a565b9050426004600084815260200190815260200160002060006002811015156110ea57fe5b01819055508060046000848152602001908152602001600020600160028110151561111157fe5b01819055505050565b600060036005600084815260200190815260200160002060006101000a81548160ff0219169083600481111561114c57fe5b021790555060019050919050565b600080600080600060014303935083406001900492507da7c5ac471b4784230fcf80dc33721d53cddd6e04c059210385c67dfe32a09150600182848860405160200180838152602001828152602001925050506040516020818303038152906040526040518082805190602001908083835b6020831015156111f157805182526020820191506020810190506020830392506111cc565b6001836020036101000a03801982511681845116808217855250505050505090500191505060405180910390206001900481151561122b57fe5b0401905061271081101561124057600a810290505b809450505050509190505600a165627a7a72305820a218b2ec3be868fef9b5513cedc1af3d6c014510dbaedd6084bef56d167905f50029",
  "source": "pragma solidity ^0.4.2;\n\n/**\n * The KuwaToken contract does this and that...\n */\ncontract KuwaToken {\n    //name\n    string public name = \"KuwaToken\";\n\n    //symbol\n    string public symbol = \"Kuwa\";\n\n    //standard\n    string public standard = \"KuwaToken v1.0\";//not ERC20\n\n    uint256 public totalSupply; //making public eliminates use of the function returning total supply for ERC20\n\n    // Challenges are stored here in an array. In the index 0 of the array the timestamp is\n    // recorded of the moment in which the challenge is generated in order to check for\n    // expiration. Index 1 contains the challenge.\n    // Challenges can be found with the publicKey\n    mapping(uint256 => uint256[2]) public challenges;\n\n    // Unknown is set first as the default value. We do this in case a key is looked for and\n    // it is not found in the mapping\n    enum RegistrationStatus { Unknown, Funded, Waiting, Valid, Invalid }\n    mapping(uint256 => RegistrationStatus) public registrationStatus;\n\n    mapping (address => uint256) public balanceOf; //ERC 20 balanceOf\n    mapping(address => mapping(address => uint256)) public allowance;\n\n\t//Transfer event\n    event Transfer(\n        address indexed _from,\n        address indexed _to,\n        uint256 _value\n    );\n\n\t// Approve event \n\n    event Approval(\n        address indexed _owner,\n        address indexed _spender,\n        uint256 _value\n    );\n\t\n\n\t//constructor\n\t//set the total number of tokens\n\t//read total number of tokens\n\n    constructor (uint256 _initialSupply) public{\n        // allocate the initial supply\n        balanceOf[msg.sender] = _initialSupply;\n        totalSupply = _initialSupply;\n\n    }\n\n\t\n\t// Transfer\n    function transfer(address _to, uint256 _value) public returns(bool success){\n\n\n\n        // Exception if account doesnt have enough balance\n        require(balanceOf[msg.sender] >= _value, \"Revert balance to Sender\");\n        \n        //Transfer the balance\n        balanceOf[msg.sender] -= _value;\n        balanceOf[_to] += _value;\n\n        //fire Transfer event according to ERC20\n        emit Transfer(msg.sender, _to, _value);\n\n        //return a boolean\t\n        return true;\n    }\n\n\t//delegated transfers\n\t//approve\n    function approve(address _spender, uint256 _value) public returns (bool success) {\n        allowance[msg.sender][_spender] = _value;\n\n        emit Approval(msg.sender, _spender, _value);\n\n        return true;\n    }\n\t\n\t//transferfrom\n\n    function transferFrom(address _from, address _to, uint256 _value) public returns (bool success) {\n        require(_value <= balanceOf[_from], \"Revert balance to sender\");\n        require(_value <= allowance[_from][msg.sender], \"Revert balance to sender because he doesnt have enough allowance\");\n\n        balanceOf[_from] -= _value;\n        balanceOf[_to] += _value;\n\n        allowance[_from][msg.sender] -= _value;\n\n        emit Transfer(_from, _to, _value);\n\n        return true;\n    }\n\n    // Still don't know what you were doing here Manush hahaha\n    function storeRequest (uint256 _gas) payable public {\n\n        require (msg.value == _gas, \"Revert balance to sender\");\n        \n    }\n\n    // Generates a 5-digit pseudorandom number\n    function rand(uint256 _publicKey) private view returns (uint256){\n        // Generates random number\n        uint256 lastBlockNumber = block.number - 1;\n        uint256 hashVal = uint256(blockhash(lastBlockNumber));\n        // This turns the input data into a 100-sided die\n        // by dividing by ceil(2 ^ 256 / 100000).\n        uint256 FACTOR = 1157920892373161954235709850086879078532699846656405640394575840079131296;\n        uint256 randNum = uint256(uint256(keccak256(abi.encodePacked(hashVal, _publicKey))) / FACTOR) + 1;\n        // Sometimes the leading value is 0, so we just need to place it at the end of the challenge\n        if (randNum < 10000) {\n            randNum = randNum * 10;\n        }\n        return randNum;\n    }\n\t\n    // Generates a challenge using the rand method and stores it in challenges\n    function generateChallenge(uint256 _publicKey) public {\n        uint256 challenge = rand(_publicKey);\n        challenges[_publicKey][0] = block.timestamp;\n        challenges[_publicKey][1] = challenge;\n        // TODO: change registration status\n        // registrationStatus[_publicKey] = RegistrationStatus.Waiting; <- Not sure\n    }\n\n    // This was not part of the specification of the week but it makes sense to add it\n    function getChallenge(uint256 _publicKey) public view returns(uint256) {\n        uint256 timeElapsed = block.timestamp - challenges[_publicKey][0];\n        // timestamp is in seconds, therefore, 36000s == 10min.\n        // We may need to change this later.\n        if (timeElapsed < 36000) {\n            return challenges[_publicKey][1];\n        }\n        // TODO: Maybe change the Registration Status here as well? Like RegistrationStatus.Expired\n        return 0;\n        \n    }\n\n    // Kind of unnecessary because registrationStatus mapping is public, so a getter method must\n    // have been generated as well\n    function getRegistrationStatus(uint256 _publicKey) public view returns(RegistrationStatus) {\n        return registrationStatus[_publicKey];\n    }\n\n    function markAsValid(uint256 _publicKey) public returns(bool) {\n        registrationStatus[_publicKey] = RegistrationStatus.Valid;\n        return true;\n    }\n\n    // I guess this one also makes sense. We should probably add this to the documentation\n    function markAsInvalid(uint256 _publicKey) public returns(bool) {\n        registrationStatus[_publicKey] = RegistrationStatus.Invalid;\n        return true;\n    }\n\n}\n\n",
  "sourcePath": "/home/clankster99/Documents/TCUP/tcup/SmartContracts/contracts/KuwaToken.sol",
  "compiler": {
    "name": "solc",
    "version": "0.4.24+commit.e67f0147.Emscripten.clang"
  },
  "schemaVersion": "2.0.0",
  "updatedAt": "2018-05-31T20:58:07.546Z"
}